:020000040800F2
:100000000000022091540008BD200008BF20000815
:10001000C1200008C3200008C5200008000000001F
:100020000000000000000000000000005150000827
:10003000C720000800000000F1500008DF4B000856
:10004000E1540008E1540008E1540008E1540008BC
:10005000E1540008E1540008E1540008E1540008AC
:10006000E1540008E1540008E1540008E15400089C
:10007000E1540008E1540008E1540008E15400088C
:10008000E1540008E1540008E1540008E15400087C
:10009000E1540008E1540008E1540008E15400086C
:1000A000E1540008C9200008E1540008E1540008A8
:1000B000E1540008E1540008E1540008E15400084C
:1000C000E1540008E1540008E1540008E15400083C
:1000D000E1540008E1540008E1540008E15400082C
:1000E000E1540008E1540008E1540008E15400081C
:1000F000E1540008E1540008E1540008E15400080C
:10010000E1540008E1540008E1540008E1540008FB
:10011000E1540008E1540008E1540008E1540008EB
:10012000E1540008E1540008E1540008E1540008DB
:10013000E15400080000000000000000E154000845
:10014000D9200008E1540008E1540008E1540008F7
:10015000E1540008E1540008E1540008E1540008AB
:10016000E1540008E1540008E1540008E15400089B
:10017000E1540008E1540008000000000000000005
:08018000E1540008E1540008FD
:100190000348044B834202D0034B03B11847704716
:1001A0001800002018000020000000000548064943
:1001B0000B1AD90F01EBA301491002D0034B03B175
:1001C00018477047180000201800002000000000A9
:1001D00010B5064C237843B9FFF7DAFF044B13B18F
:1001E0000448AFF300800123237010BD18000020E5
:1001F00000000000E454000808B5044B1BB104499A
:100200000448AFF30080BDE80840CFE700000000DD
:100210001C000020E454000870B50D4E0D4D761BF7
:10022000B61006D0002455F8043B01349847A64286
:10023000F9D1094E094D761B05F054F9B61006D0D8
:10024000002455F8043B01349847A642F9D170BD0B
:100250006059000860590008645900086059000896
:10026000844641EA000313F003036DD1403A41D3C1
:1002700051F8043B40F8043B51F8043B40F8043B80
:1002800051F8043B40F8043B51F8043B40F8043B70
:1002900051F8043B40F8043B51F8043B40F8043B60
:1002A00051F8043B40F8043B51F8043B40F8043B50
:1002B00051F8043B40F8043B51F8043B40F8043B40
:1002C00051F8043B40F8043B51F8043B40F8043B30
:1002D00051F8043B40F8043B51F8043B40F8043B20
:1002E00051F8043B40F8043B51F8043B40F8043B10
:1002F000403ABDD2303211D351F8043B40F8043BB0
:1003000051F8043B40F8043B51F8043B40F8043BEF
:1003100051F8043B40F8043B103AEDD20C3205D3BF
:1003200051F8043B40F8043B043AF9D2043208D0B7
:10033000D2071CBF11F8013B00F8013B01D30B8829
:1003400003806046704700BF082A13D38B078DD007
:1003500010F003038AD0C3F10403D21ADB071CBFD9
:1003600011F8013B00F8013B80D331F8023B20F843
:10037000023B7BE7043AD9D3013A11F8013B00F87C
:10038000013BF9D20B7803704B7843708B78837004
:1003900060467047830730B548D0541E002A3FD0CE
:1003A000CAB2034601E0013C3AD303F8012B9D0792
:1003B000F9D1032C2DD9CDB245EA05250F2C45EAFC
:1003C000054536D9A4F1100222F00F0C03F1200EDE
:1003D000E6444FEA121C03F1100242E9045542E9D7
:1003E000025510327245F8D10CF1010214F00C0FD5
:1003F00003EB021204F00F0C13D0ACF1040323F052
:1004000003030433134442F8045B9342FBD10CF022
:1004100003042CB1CAB21C4403F8012B9C42FBD14B
:1004200030BD64461346002CF4D1F9E70346144668
:10043000BFE71A46A446E0E710EE103A194A23F047
:10044000004393421CDDB3F1FF4F02DB30EE400A64
:10045000704700B583B0684600F028F800F003004C
:100460000128DDED010A9DED000A0ED0022813D00F
:1004700070B100F04DF9B1EE400A03B05DF804FB35
:10048000DFED090A002000F0FFBC00F041F9F4E7BD
:10049000012000F0F9FCF0E7012000F0F5FCB1EEDE
:1004A000400AEAE7D80F493F0000000070B510EE9F
:1004B000103A894A23F00044944286B0054670DD24
:1004C000864A944210EE106A22DC002BDFED847A1B
:1004D000844A24F00F04B0EE407A40F3E480944262
:1004E00070EE677A09BFDFED806A9FED807A9FED3D
:1004F000807A77EEE67A012077EEC76A77EEE67AC1
:10050000C5ED006A77EEC77AC5ED017A06B070BD19
:10051000784A944254DDB4F1FF4F49DAE215863A45
:10052000A4EBC25307EE903ABDEEE77ADFED726AB4
:10053000B8EEC77A77EEC77A8DED037A67EEA67AC2
:10054000BDEEE77AB8EEC77A77EEC77A8DED047A1A
:1005500067EEA67AF5EE407AF1EE10FACDED057A67
:1005600040F09080B5EE407AF1EE10FA14BF02230D
:100570000123624901910221009103A8294600F05C
:1005800049F9002EC2DA95ED007AD5ED017AB1EE87
:10059000477AF1EE677A85ED007AC5ED017A40423F
:1005A000B4E7002285ED000A4260002006B070BD6D
:1005B00070EE407A0020C5ED017AC5ED007AA5E71E
:1005C00000F0AAFC9FED4E7A9FED456AF6EE007AA8
:1005D000E0EE077A9FED457AFDEEE77A17EE900A96
:1005E000F8EEE76A1F28A6EEC60A66EE877AB1EE35
:1005F000666A1EDC434A411E24F0FF0352F82120A4
:10060000934216D030EE677A85ED007A30EE470AD5
:10061000002E30EE670A85ED010ABFF677AFB1EE26
:10062000477AB1EE400A85ED007A85ED010A404235
:100630006CE730EE677AE21517EE103AC3F3C75352
:10064000C3EBD454082CDFDDDFED277A9FED287A49
:10065000F0EE405AE6EE275A30EE650AA6EE270A7B
:10066000F0EE407AD6EE877A35EEE77A17EE103A5A
:10067000C3F3C753D21A192A06DCB0EE650A85ED1A
:10068000007AC3E7032374E79FED1F7A9FED1F5A9B
:10069000B0EE650AA6EE070A75EEC07AE6EE077AB6
:1006A000D6EE857AAEE7944270EE277A09BFDFED89
:1006B0000E6A9FED0E7A9FED0E7A77EEA67A4FF0D6
:1006C000FF3077EE876A77EEE67AC5ED006A77EE5F
:1006D000877AC5ED017A19E7D80F493FE3CB164079
:1006E000800FC93FD00FC93F0044353743443537E9
:1006F00008A3852E800F4943000080437C550008E5
:1007000084F9223FFC54000800A3852E32318D2449
:1007100010EE103A23F00043B3F1485F2CDAFDEEFF
:10072000C07A17EE903A002B60D020EE007ADFED11
:10073000317A9FED315ADFED315A9FED316ADFEDAD
:10074000316AA7EE275ADFED307AE7EE055AA7EEB9
:10075000256AE7EE067AE7EE276A67EE266A60EE1C
:10076000C00AF6EE007AE7EE260AB7EE000AD7EEE8
:10077000270A30EE600A704720EE007ADFED1D7A1E
:100780009FED1D5ADFED1D5A9FED1D6ADFED1D6ABD
:100790001E4AA7EE275A9342DFED1B7AE5EE075A71
:1007A000A5EE876AE6EE077AE7EE876A66EE876A65
:1007B000D5DD174A934214DC03F17F4307EE903AEC
:1007C000B7EE006A36EE676A60EEC00AF6EE005ACF
:1007D000D7EE257AE7EE260A77EEE00A36EE600AD3
:1007E0007047B6EE076AF5EE027AEDE7B7EE000A5B
:1007F000704700BF4ED747ADF6740F317CF293B40B
:10080000010DD037ABAA2A3D610BB6BA9999993E32
:100810000000483F2DE9F04F2DED048BDBB01C4666
:1008200003930691A24B6899089253F82150111D29
:10083000824604F1FF38C0F2A382D31E48BF131DC5
:10084000DB1002930133DB000793DDE907239B1ADA
:100850000593029B15EB0801A3EB080316D40131A5
:100860009FED947A699819441EAA002BA4BF50F8F2
:10087000234007EE904A03F10103ACBFF8EEE77A9C
:10088000F0EE477A8B42E2EC017AEED1002DC0F215
:10089000E782039B1EAA02EB830446AE4FEA830C59
:1008A0004046EF180AEB8301B8F1000FDFED817AC3
:1008B00009DB22465346F3EC016A32ED017A8B42A2
:1008C000E6EE877AF7D10130B842E6EC017A04F11E
:1008D0000404E9D109AB0AAF03EB850907EB8503F3
:1008E000083B9FED769ADFED748A059804930AEB36
:1008F0000C0446AE00955AAB03EB8503002D13EDB7
:10090000140A4FEA850B16DD06EB85033A4660EEC6
:10091000097AB0EE407AFDEEE77A73ED016AF8EEFF
:10092000E77AB342A7EEE87A37EEA60ABDEEC77AB9
:10093000A2EC017AEBD1019000F03CFBB0EE408AD2
:10094000B4EE000A28EE000A00F0EEFAF2EE007AA9
:10095000A0EE678A01980028FDEEC89AF8EEE97AC1
:1009600038EE678A79DD05F1FF3EC0F1080357F8DC
:100970002E1041FA03FC0CFA03F3CB1AC0F1070264
:1009800019EE901A43FA02F26144002A47F82E3019
:1009900009EE901A69DCB5EE408AF1EE10FA40F0EB
:1009A000C080009B05F1FF3B5B4510DC05F18043F7
:1009B000013B07EB83030021944653F804294B4580
:1009C00041EA0201F9D16246002940F0F280009B21
:1009D000013B57F82330002B40F0E780049B4FF099
:1009E000010C53F804290CF1010C002AF9D06B1CFE
:1009F000AC449E46039A5119029A02EB030B0BF189
:100A0000804B699A0BF1FF3B06EB83051EAB02EBB3
:100A10008B0B03EB8101DBED017A9FED267AF8EE7B
:100A2000E77AB8F1000F0BF1040BC1ED007A0A462A
:100A300001F1040109DB534601E072ED017AF3ECA8
:100A4000016AA342A6EEA77AF7D10EF1010EE645A0
:100A5000A5EC017ADFDD65464DE740F09C806B1E1A
:100A600057F823201212002A95DD19EE903A002D36
:100A700003F1010309EE903A40F3988139680029A7
:100A80007FD1012D26D03B464FF0010C53F8041FB7
:100A900000297AD00CF10103C1F580719D4247F81D
:100AA0002C1016DD57F82310BB4407EB83030AE034
:100AB0009458000800000000000080430000803BC4
:100AC0000000C93F1968C1F1FF0143F8041B5B45F1
:100AD000F8D1012100280CDD012800F0488102280E
:100AE00007D105F1FF3C57F82C3003F03F0347F8DE
:100AF0002C30022A7FF44FAFB7EE000A30EE488A5E
:100B000000293FF448AF0992019000F053FA38EE03
:100B1000408A099A0198B5EE408AF1EE10FA3FF446
:100B200040AF0292DDE90732B0EE480A981A01950B
:100B3000009D00F03FFA1FED207AB4EEC70AF1EEF7
:100B400010FADDE90132C0F259815FED247A05998E
:100B500060EE277A0831FDEEE77A0591F8EEE77A44
:100B600003F1010BA7EEC70AFDEEE77ABDEEC00A5E
:100B700010EE101A47F8231017EE903A47F82B3072
:100B80002EE001234FF0000C86E70CF1010CAC4580
:100B90007FF47CAF9EE7F6EE007AB4EEE78AF1EEE2
:100BA00010FA80F2F2800022F5E66B1C9E469C460D
:100BB00020E70599A1F1080057F82B1005902B4666
:100BC000009D69B903F18043023B07EB83030146B3
:100BD00053F804090BF1FF3B08390028F8D00591C0
:100BE00005980092B7EE000A00F0E4F9BBF1000F9F
:100BF000009AC0F228814FEA8B0E46AB03EB0E063B
:100C00000EF1040C1FED537A07EB0C03311D73ED4D
:100C1000017AF8EEE77ABB4267EE807A20EE070AA7
:100C200061ED017AF3D1002D1FED5B6A4FF00004F6
:100C300020DB9348DFED937AB0EE467A314600230D
:100C400003E09C4208DBB0EC017AF1EC016A01336D
:100C50009D42E6EE877AF4DA5AAB03EB8403A345B0
:100C600043ED287AA6F1040604F1010305D0002D16
:100C70001C46DEDADFED837AEEE7689902291CDC98
:100C8000002900F395800FD132ABDFED7E7A9C44D2
:100C90003CED017A634577EE877AF9D10AB1F1EE3E
:100CA000677A069BC3ED007A19EE903A03F00700CD
:100CB0005BB0BDEC048BBDE8F08F689B032BF3D1D8
:100CC000BBF1000F00F0D4800EF5B4736B4432A971
:100CD00013ED287A01EB8B0373ED017AF0EE476A8E
:100CE00037EE277A994277EEC77A83ED007A77EE6E
:100CF000A67AC3ED017AEFD1BBF1010F40F3B880C2
:100D00000BF1804B0EF5B4730BF1FF3B0DEB030EB3
:100D10004FEA8B0B0BF104031EED287A0B4433A82A
:100D200073ED017AF0EE476A37EE277A984277EE54
:100D3000C77A83ED007A77EEA67AC3ED017AEFD118
:100D40000BF1080BDFED4F7A01EB0B03083133EDAC
:100D5000017A994277EE877AF9D1002A56D106991D
:100D6000329A339B0A604B60C1ED027A9CE705F131
:100D7000FF3C57F82C3003F07F0347F82C30B8E6DF
:100D800008230793002302935FE519EE903A002DA4
:100D900003F1010309EE903AC8BF02223FF76EAE9D
:100DA000F7EE007A37EEC88A0222F4E5002191E6D8
:100DB00032A9DFED347A01EB830333ED017A9942F6
:100DC00077EE877AF9D19DED327A8ABB069BBBF12B
:100DD000000FC3ED007A77EE677A0BDD33A90123AC
:100DE000B1EC017A01339B4577EE877AF8DA0AB1E4
:100DF000F1EE677A069BC3ED017A55E7BDEEC00AB6
:100E00009B4610EE101A47F82310E9E6DDED326A32
:100E10009DED337A069BF1EE666AB1EE477AF1EE0C
:100E2000677AC3ED006A83ED017AC3ED027A3BE78E
:100E3000069BF1EE676ABBF1000F77EE677AC3EDB0
:100E4000006ACBDCD4E7689B022B0DDC002B14DCA2
:100E50007FF42AAFDFED0B7A002A3FF422AF1EE7C2
:100E6000039B4FEA830C35E5689B032B7FF41CAF93
:100E7000DFED047A002AC9D171E7DFED027AA2E73B
:100E8000A45800080000000010EE103A23F00043C0
:100E9000B3F1485F04DAFDEEC07A17EE903A5BB327
:100EA00060EE007A9FED157ADFED155A9FED156A19
:100EB000DFED156AE7EE875A9FED147AA5EEA76A73
:100EC00020EE275AE6EE276AA6EEA77A30B9DFEDC4
:100ED000106AE7EE876AA6EE850A704727EE457A24
:100EE000F6EE006AA0EEA67ADFED0A6AD7EE270AD0
:100EF000E5EE260A30EE600A704700BFD3C92E2FF8
:100F0000342FD7B21BEF3836010D50B98988083C11
:100F1000ABAA2ABEABAA2A3E10EE103A23F0004339
:100F200000EE103A704700BF10EE102AC2F3C7530C
:100F30007F3B162B22F0004128DC002B18DB1A49DE
:100F400019410A4221D0DFED197A70EE277AF5EEC9
:100F5000C07AF1EE10FA18DD002A04DA4FF400002E
:100F600040FA03F31A4422EA010300EE103A7047F4
:100F7000DFED0E7A70EE277AF5EEC07AF1EE10FA18
:100F800003DD002A08DB9FED0A0A7047B1F1FF4F2D
:100F9000FBD330EE000A7047FFEE007A002918BF3D
:100FA000B0EE670A704700BFFFFF7F00CAF24971C9
:100FB0000000000082B08DED010A019B33F0004279
:100FC0002AD0B2F1FF4F23D213F0FF4F28D19DED6D
:100FD000017ADFED2A7A2A4B67EE277A9842CDED27
:100FE000017A37DB019BC3F3C752193A0244FE2A48
:100FF0001ADD9FED240A9FED247A019B002BF0EE71
:10100000407AB8BFB0EE470A20EE270A02B0704718
:1010100030EE000A02B070479DED010A02B0704741
:10102000D20D0244FE2AE4DC002A0BDC12F1160F7A
:1010300017DA4CF250339842DBDC9FED140A9FED37
:10104000147ADAE723F0FF4343EAC25300EE103A82
:1010500002B070479FED0D0ADDED017A27EE800AA0
:10106000D8E7193223F0FF4343EAC253DFED097A90
:1010700007EE103A27EE270ACCE700BF0000004C2D
:10108000B03CFFFFCAF24971CAF249F16042A20DB9
:101090006042A28D0000003370B54FF0FF0C4CF49D
:1010A000E06C1CEA11541DBF1CEA135594EA0C0FA6
:1010B00095EA0C0F00F0DEF82C4481EA030621EAE1
:1010C0004C5123EA4C5350EA013518BF52EA03351C
:1010D00041F4801143F4801338D0A0FB02CE4FF0CE
:1010E0000005E1FB02E506F00042E0FB03E54FF0FE
:1010F0000006E1FB03569CF0000F18BF4EF0010EF6
:10110000A4F1FF04B6F5007F64F5407404D25FEAF1
:101110004E0E6D4146EB060642EAC62141EA5551A4
:101120004FEAC52040EA5E504FEACE2EB4F1FD0CE6
:1011300088BFBCF5E06F1ED8BEF1004F08BF5FEA64
:10114000500E50F1000041EB045170BD06F0004616
:1011500046EA010140EA020081EA0301B4EB5C04C3
:10116000C2BFD4EB0C0541EA045170BD41F48011BB
:101170004FF0000E013C00F3AB8014F1360FDEBFE0
:10118000002001F0004170BDC4F10004203C35DABC
:101190000C341BDC04F11404C4F1200500FA05F33F
:1011A00020FA04F001FA05F240EA020001F00042E0
:1011B00021F0004110EBD37021FA04F642EB060156
:1011C0005EEA430E08BF20EAD37070BDC4F10C0480
:1011D000C4F1200500FA04F320FA05F001FA04F244
:1011E00040EA020001F0004110EBD37041F1000130
:1011F0005EEA430E08BF20EAD37070BDC4F120053B
:1012000000FA05F24EEA020E20FA04F301FA05F2A2
:1012100043EA020321FA04F001F0004121FA04F24A
:1012200020EA020000EBD3705EEA430E08BF20EA1A
:10123000D37070BD94F0000F0FD101F00046400054
:1012400041EB010111F4801F08BF013CF7D041EAD6
:10125000060195F0000F18BF704703F000465200DA
:1012600043EB030313F4801F08BF013DF7D043EAAB
:101270000603704794EA0C0F0CEA135518BF95EA61
:101280000C0F0CD050EA410618BF52EA4306D1D1E8
:1012900081EA030101F000414FF0000070BD50EA07
:1012A000410606BF1046194652EA430619D094EA91
:1012B0000C0F02D150EA013613D195EA0C0F05D17B
:1012C00052EA03361CBF104619460AD181EA0301CF
:1012D00001F0004141F0FE4141F470014FF0000087
:1012E00070BD41F0FE4141F4780170BD81F00041D4
:1012F00002E000BF83F0004330B54FEA41044FEAFB
:10130000430594EA050F08BF90EA020F1FBF54EA95
:10131000000C55EA020C7FEA645C7FEA655C00F031
:10132000E2804FEA5454D4EB5555B8BF6D420CDD02
:101330002C4480EA020281EA030382EA000083EA85
:10134000010180EA020281EA0303362D88BF30BD25
:1013500011F0004F4FEA01314FF4801C4CEA11317B
:1013600002D0404261EB410113F0004F4FEA0333DA
:101370004CEA133302D0524263EB430394EA050F65
:1013800000F0A780A4F10104D5F1200E0DDB02FAD4
:101390000EFC22FA05F2801841F1000103FA0EF268
:1013A000801843FA05F359410EE0A5F120050EF12E
:1013B000200E012A03FA0EFC28BF4CF0020C43FA5F
:1013C00005F3C01851EBE37101F0004507D54FF06C
:1013D000000EDCF1000C7EEB00006EEB0101B1F5BC
:1013E000801F1BD3B1F5001F0CD349085FEA300002
:1013F0004FEA3C0C04F101044FEA445212F5800F0D
:1014000080F09A80BCF1004F08BF5FEA500C50F1A9
:10141000000041EB045141EA050130BD5FEA4C0C8C
:10142000404141EB0101013C28BFB1F5801FE9D2E9
:1014300091F0000F04BF01460020B1FA81F308BF0C
:101440002033A3F10B03B3F120020CDA0C3208DDD8
:1014500002F1140CC2F10C0201FA0CF021FA02F1B3
:101460000CE002F11402D8BFC2F1200C01FA02F123
:1014700020FA0CFCDCBF41EA0C019040E41AA2BF48
:1014800001EB0451294330BD6FEA04041F3C1CDA10
:101490000C340EDC04F11404C4F1200220FA04F030
:1014A00001FA02F340EA030021FA04F345EA0301DA
:1014B00030BDC4F10C04C4F1200220FA02F001FA9C
:1014C00004F340EA0300294630BD21FA04F029461E
:1014D00030BD94F0000F83F4801306BF81F48011B7
:1014E0000134013D4EE77FEA645C18BF7FEA655C2A
:1014F00029D094EA050F08BF90EA020F05D054EAFC
:10150000000C04BF1946104630BD91EA030F1EBF00
:101510000021002030BD5FEA545C05D14000494104
:1015200028BF41F0004130BD14F580043CBF01F5F7
:10153000801130BD01F0004545F0FE4141F47001DD
:101540004FF0000030BD7FEA645C1ABF19461046B8
:101550007FEA655C1CBF0B46024650EA013406BFB9
:1015600052EA033591EA030F41F4002130BD00BF78
:1015700090F0000F04BF0021704730B54FF4806435
:1015800004F132044FF000054FF0000150E700BFB6
:1015900090F0000F04BF0021704730B54FF4806415
:1015A00004F1320410F0004548BF40424FF0000102
:1015B0003EE700BF42004FEAE2014FEA31014FEA45
:1015C00002701FBF12F07F4393F07F4F81F0605194
:1015D000704732F07F4208BF704793F07F4F04BFDF
:1015E00041F40021704730B54FF4607401F00045BC
:1015F00021F000411CE700BF50EA010208BF70471C
:1016000030B54FF000050AE050EA010208BF70470C
:1016100030B511F0004502D5404261EB41014FF475
:10162000806404F132045FEA915C3FF4D8AE4FF07D
:1016300003025FEADC0C18BF03325FEADC0C18BF60
:10164000033202EBDC02C2F1200300FA03FC20FAB1
:1016500002F001FA03FE40EA0E0021FA02F11444FE
:10166000BDE600BF4FF0FF3C06E000BF4FF0010CAD
:1016700002E000BF4FF0010C4DF804CD4FEA410CE1
:101680007FEA6C5C4FEA430C18BF7FEA6C5C1BD0AE
:1016900001B050EA410C0CBF52EA430C91EA030F2F
:1016A00002BF90EA020F0020704710F1000F91EA8C
:1016B000030F58BF994208BF90422CBFD8176FEA5A
:1016C000E37040F0010070474FEA410C7FEA6C5C28
:1016D00002D150EA013C07D14FEA430C7FEA6C5C2F
:1016E000D6D152EA033CD3D05DF8040B704700BF5B
:1016F0008446104662468C461946634600E000BFA9
:1017000001B5FFF7B7FF002848BF10F1000F01BD7A
:101710004DF808EDFFF7F4FF0CBF012000205DF845
:1017200008FB00BF4DF808EDFFF7EAFF34BF0120CA
:1017300000205DF808FB00BF4DF808EDFFF7E0FF63
:1017400094BF012000205DF808FB00BF4DF808EDB4
:10175000FFF7CEFF94BF012000205DF808FB00BF1B
:101760004DF808EDFFF7C4FF34BF012000205DF8FD
:1017700008FB00BF4FEA4102B2F1E04324BFB3F5DA
:10178000001CDCF1FE5C0DD901F0004C4FEAC002F8
:101790004CEA5070B2F1004F40EB830008BF20F0DC
:1017A0000100704711F0804F21D113F13872BCBF96
:1017B00001F00040704741F480114FEA5252C2F1EB
:1017C0001802C2F1200C10FA0CF320FA02F018BF34
:1017D00040F001004FEAC1234FEAD32303FA0CFC87
:1017E00040EA0C0023FA02F34FEA4303CCE77FEA16
:1017F000625307D150EA01331EBF4FF0FE4040F460
:101800004000704701F0004040F0FE4040F400000E
:10181000704700BF53B94AB9002908BF00281CBF50
:101820004FF0FF314FF0FF3000F074B9ADF1080C0C
:101830006DE904CE00F006F8DDF804E0DDE90223EE
:1018400004B070472DE9F047089D04468E46002BF2
:101850004DD18A42944669D9B2FA82F252B101FA64
:1018600002F3C2F1200120FA01F10CFA02FC41EA74
:10187000030E94404FEA1C48210CBEFBF8F61FFAF9
:101880008CF708FB16E341EA034306FB07F1994294
:101890000AD91CEB030306F1FF3080F01F81994247
:1018A00040F21C81023E63445B1AA4B2B3FBF8F021
:1018B00008FB103344EA034400FB07F7A7420AD9A8
:1018C0001CEB040400F1FF3380F00A81A74240F2D0
:1018D00007816444023840EA0640E41B00261DB13B
:1018E000D4400023C5E900433146BDE8F0878B4270
:1018F00009D9002D00F0EF800026C5E9000130462F
:101900003146BDE8F087B3FA83F6002E4AD18B4208
:1019100002D3824200F2F980841A61EB03030120B2
:101920009E46002DE0D0C5E9004EDDE702B9FFDE9E
:10193000B2FA82F2002A40F09280A1EB0C014FEA49
:101940001C471FFA8CFE0126200CB1FBF7F307FBA6
:10195000131140EA01410EFB03F0884208D91CEB49
:10196000010103F1FF3802D2884200F2CB804346E6
:10197000091AA4B2B1FBF7F007FB101144EA0144C5
:101980000EFB00FEA64508D91CEB040400F1FF3154
:1019900002D2A64500F2BB800846A4EB0E0440EA42
:1019A00003409CE7C6F12007B34022FA07FC4CEA4B
:1019B000030C20FA07F401FA06F31C43F9404FEA3E
:1019C0001C4900FA06F3B1FBF9F8200C1FFA8CFE53
:1019D00009FB181140EA014108FB0EF0884202FAA7
:1019E00006F20BD91CEB010108F1FF3A80F0888068
:1019F000884240F28580A8F102086144091AA4B225
:101A0000B1FBF9F009FB101144EA014100FB0EFEA5
:101A10008E4508D91CEB010100F1FF346CD28E45D4
:101A20006AD90238614440EA0840A0FB0294A1EB65
:101A30000E01A142C846A64656D353D05DB1B3EBC2
:101A4000080261EB0E0101FA07F722FA06F3F140F2
:101A50001F43C5E9007100263146BDE8F087C2F199
:101A60002003D8400CFA02FC21FA03F39140014311
:101A70004FEA1C471FFA8CFEB3FBF7F007FB10364A
:101A80000B0C43EA064300FB0EF69E4204FA02F4F6
:101A900008D91CEB030300F1FF382FD29E422DD949
:101AA000023863449B1B89B2B3FBF7F607FB16337E
:101AB00041EA034106FB0EF38B4208D91CEB0101FE
:101AC00006F1FF3816D28B4214D9023E6144C91A7E
:101AD00046EA004638E72E46284605E70646E3E68E
:101AE0001846F8E64B45A9D2B9EB020864EB0C0E98
:101AF0000138A3E74646EAE7204694E74046D1E7A7
:101B0000D0467BE7023B614432E7304609E7644454
:101B1000023842E7704700BF84B000220192104BA8
:101B2000196B41F080011963196B01F0800101917B
:101B300001990292196B41F002011963196B01F0CE
:101B400002010291029903921A6B42F001021A6398
:101B50001B6B03F001030393039B04B0704700BFAA
:101B60000038024008B54FF47A7003F0D1F89FEDC9
:101B7000718A714CB0EE481ADFED700A9FED700A61
:101B8000204603F055FC6F4E6F4D224631462846E5
:101B900003F066FC4FF47A7003F0BAF8B0EE481A1E
:101BA000DFED6A0A9FED6A0A204603F041FC2246F7
:101BB0003146284603F054FC4FF47A7003F0A8F83D
:101BC000B0EE481ADFED630A9FED630A204603F08A
:101BD0002FFC22463146284603F042FC4FF47A702F
:101BE00003F096F8B0EE481ADFED5C0A9FED5C0A50
:101BF000204603F01DFC22463146284603F030FC07
:101C00004FF47A7003F084F8B0EE481ADFED550A0D
:101C10009FED550A204603F00BFC2246314628462C
:101C200003F01EFC4FF47A7003F072F8B0EE481A1D
:101C3000DFED4E0A9FED4E0A204603F0F9FB2246E7
:101C40003146284603F00CFC4FF47A7003F060F83C
:101C5000B0EE481ADFED470A9FED470A204603F031
:101C6000E7FB22463146284603F0FAFB4FF47A7030
:101C700003F04EF8DFED418AB0EE481ADFED400A7E
:101C8000B0EE680A204603F0D3FB224631462846D0
:101C900003F0E6FB4FF47A7003F03AF8B0EE481A1E
:101CA000DFED380AB0EE480A204603F0C1FB2246B9
:101CB0003146284603F0D4FB4FF47A7003F028F83D
:101CC000B0EE481ADFED300A9FED300A204603F0EF
:101CD000AFFB22463146284603F0C2FB4FF47A7030
:101CE00003F016F89FED2A9AB0EE481AF0EE490A72
:101CF000B0EE680A204603F09BFB22463146284698
:101D000003F0AEFB4FF47A7003F002F8B0EE481A1D
:101D1000F0EE490AB0EE680A204603F089FB22463D
:101D20003146284603F09CFB4FF47A7002F0F0FF36
:101D30001DE700BF00000000D8000020920A863F87
:101D4000DB0F49BF88000020AC000020920A86BF4C
:101D5000DB0F493F368DA740DB0FC9BF368DA7C0CB
:101D6000DB0FC93FD253FB41E4CB96C0D253FBC13A
:101D7000E4CB96408470D142DB0FC9C0DB0FC94071
:101D80008470D1C20A0632430A0632C3DB0F4940CF
:101D9000265F8D4300000000F8B52DED028B464B09
:101DA00002225A61454B03225A61454B04225A6173
:101DB000444B05225A61444B06225A61434B186832
:101DC000FFF7F8FB3AA3D3E90023FFF765F90446D0
:101DD0000D463F4B1868FFF7EDFB22462B46FFF7F9
:101DE0005BF9FFF7C7FC08EE900A0DE030A3D3E9DA
:101DF000002320462946FFF77DFAFFF7BBFC354B51
:101E00001860052002F084FF9FED338A2E4C2D4D83
:101E1000B0EE481AD4ED080A94ED070A284603F0FC
:101E200007FB2E4F2E4E2A463946304603F018FB4C
:101E3000B0EE481AD5ED080A95ED070A204603F0E2
:101E4000F7FA22463946304603F00AFB214C94ED5E
:101E5000000AFEF7F1FADFED237A20EE270A174D8C
:101E6000B0EE481ADFED200A60EE200ADFED1F7A9F
:101E700020EE270A284603F0DBFA2A463946304688
:101E800003F0EEFAD4ED007A78EEA77AC4ED007A8A
:101E900017EE900AFFF78EFB04460D4604A3D3E924
:101EA0000023FFF753FC0028A0D1AAE7AFF300807E
:101EB000182D4454FB211940D8000020280100208F
:101EC00078010020C8010020180200200400002032
:101ED00000000020380000200000000088000020E2
:101EE000AC0000200000B4435077D63D35FA8E3C5C
:101EF00002681C4B9A4200D0704710B5044600217E
:101F0000204600F0D3FB58B3174B03F10802002121
:101F1000204600F016FB0028F1D1134B9B68023BD2
:101F2000042BECD8DFE803F003080D1217000F496B
:101F30000D4803F087FAE2E70D490B4803F082FAF7
:101F4000DDE70C49084803F07DFAD8E70A4906485E
:101F500003F078FAD3E70949034803F073FACEE7B0
:101F600010BD00BF006800403C000020F0000020D1
:101F70004001002090010020E001002030020020FC
:101F800008B50268034B9A4200D008BD01F07AF907
:101F9000FBE700BF0044014072B6FEE700B595B014
:101FA0003022002108A8FEF7F5F9002303930493DB
:101FB0000593069307930193204A116C41F08051D9
:101FC0001164126C02F080520192019A02931C4B30
:101FD0001A6842F480421A601B6803F4804302933B
:101FE000029B012308934FF48033099302230E933D
:101FF0004FF480020F920A221092A822119212939B
:102000000423139308A800F0A7FC98B90F230393A7
:1020100002230493002305934FF4A05306934FF437
:1020200080530793052103A800F0E4FE20B915B002
:102030005DF804FBFFF7B0FFFFF7AEFF003802408A
:102040000070004008B501F003F9FFF7A7FFFFF7A4
:1020500063FD03F063F9104803F0CEF90F4803F075
:10206000E1F90F4C204600F0A3F90221204600F0D0
:1020700030FB02F0C1FD0B4A00210B4802F0EAFDE3
:102080000A4B18600A4A00210A4802F0E3FD0A4B95
:10209000186002F0C3FDFEE73C000020880000202D
:1020A000AC00002004590008991D0008A800002079
:1020B000E0580008651B000834000020FEE7FEE73A
:1020C000FEE7FEE7FEE7704708B5024801F08CF92D
:1020D00008BD00BF6C02002008B5024800F017FBE5
:1020E00008BD00BFAC00002000B583B00022009204
:1020F0000D4B596C41F480415964596C01F4804195
:10210000009100990192196C41F0805119641B6C87
:1021100003F080530193019B0F216FF0010001F048
:1021200051F803B05DF804FB00380240002800F0CD
:10213000A18038B5044690F82030D3B122681368E6
:1021400043F00103136001F0A9F8054623685A68BB
:1021500012F0010F10D101F0A1F8401B0A28F5D9A7
:10216000636A43F400336362052384F8203001205E
:1021700038BD03F0F7F8E1E71A6822F002021A60AE
:1021800001F08CF8054623685A6812F0020F0DD052
:1021900001F084F8401B0A28F5D9636A43F4003340
:1021A0006362052384F820300120E1E7227E012AC2
:1021B0003DD01A6822F080021A60637E012B3BD06A
:1021C0002268136823F040031360A37E012B39D0EB
:1021D0002268136823F020031360E37E012B37D0BD
:1021E0002268136843F010031360237F012B35D05E
:1021F0002268136823F008031360637F012B33D038
:102200002268136823F004031360A368E268134391
:1022100022691343626913436268013A21681343D8
:10222000CB6100206062012384F82030A0E71A68A7
:1022300042F080021A60C0E72268136843F040034E
:102240001360C2E72268136843F020031360C4E7F9
:102250002268136823F010031360C6E7226813682E
:1022600043F008031360C8E72268136843F00403CF
:102270001360CAE70120704790F82030013BDBB2C1
:10228000012B05D9436A43F4802343620120704740
:1022900030B5464BD3F8002242F00102C3F80022C9
:1022A000D3F8002222F47C52C3F80022D3F8002293
:1022B000486A42EA0022C3F800224A6902F01F027B
:1022C000012000FA02F2D3F81C026FEA020C20EAA5
:1022D0000200C3F81C02CB69C3B9344BD3F80C021B
:1022E0000CEA0000C3F80C028C884869CD6844EA07
:1022F0000544483043F830408C68088840EA044080
:102300004C6904F1480E03EBCE035860CB69012BF6
:102310001ED08B69002B33D12448D0F804320CEA4C
:102320000303C0F804320B698BBB2048D0F8143289
:102330000CEA0303C0F814320B6A012B2ED01B4A9F
:10234000D2F8003223F00103C2F80032002030BD81
:10235000164BD3F80C021043C3F80C028C88486962
:102360000D6844EA0544483043F8304088894C6998
:102370008D6840EA0540483403EBC4035860C8E761
:102380000A48D0F804321343C0F80432CBE70748B8
:10239000D0F814321343C0F81432CDE70349D1F812
:1023A0001C321A43C1F81C22C9E700BF0064004078
:1023B00070B5044690F82050EDB2012D06D0436A66
:1023C00043F4002343620125284670BD022380F8B0
:1023D00020300268136823F00103136000F05EFFF1
:1023E000064623685B6813F0010F0CD000F056FF1F
:1023F000831B0A2BF5D9636A43F400336362052318
:1024000084F82030E0E700256562DDE730B590F81C
:1024100020C00468A4680CF1FF3C5FFA8CFCBCF19E
:10242000010F62D814F0E05F59D0C4F3016C0124AD
:1024300004FA0CF41C608B68002B3DD10D68CB684E
:10244000046843EA45550CF118031B01E550036885
:102450000C690CF1180E03EB0E135C600B7D012B65
:1024600035D0D17993791B0443EA0163517943EA6A
:10247000012314790168234301EB0C11C1F88C315D
:10248000D17893781B0443EA0163517843EA01232E
:10249000117802680B4302EB0C12C2F88831026813
:1024A0000CF1180C4FEA0C1C52F80C3043F00103ED
:1024B00042F80C3000201DE04C6843EAC403CC68AD
:1024C00023430CF11804240105682B51BFE703686E
:1024D00003EB0E13596841F480715960C1E7436AF8
:1024E00043F400134362012004E0436A43F4802371
:1024F0004362012030BD90F82030013BDBB2012B5C
:1025000005D9436A43F4802343620120704711F0E8
:10251000010F04D00268936843F08003936011F0C8
:10252000020F04D00268936843F40043936011F0F3
:10253000040F04D00268936843F400039360002002
:10254000704790F820C00CF1FF3C5FFA8CFCBCF1A6
:10255000010F00F2A58030B451B90468E46814F0AA
:10256000030F10D1436A43F40013436201207EE05D
:102570000468246914F0030F05D1436A43F400137F
:102580004362012073E0056801F11B0424012C590A
:1025900004F004049460002C6BD1056801F11B0465
:1025A00024012C59640D1460046801F11B0C4FEADE
:1025B0000C1C54F80C4004F00204D4600468A444D9
:1025C000DCF8045015F0080F5BD00824146105688E
:1025D00001F11B0C05EB0C156D68C5F30725956122
:1025E000046804EB0C146468240C5461026802EB68
:1025F0000112D2F8B8211A70026802EB0112D2F867
:10260000B821C2F307225A70026802EB0112D2F815
:10261000B821C2F307429A70026802EB0112D2F8A5
:10262000B821120EDA70026802EB0112D2F8BC2156
:102630001A71026802EB0112D2F8BC21C2F3072220
:102640005A71026802EB0112D2F8BC21C2F30742B0
:102650009A71026802EB0112D2F8BC21120EDA71F3
:10266000C1B90268D36843F02003D360002030BCB6
:102670007047056801F11B0424012C59E4085460DB
:1026800092E701F11B0504EB0514646804F00F04E4
:1026900014619CE70268136943F020031361E5E7C6
:1026A000436A43F4802343620120704790F820304E
:1026B000013BDBB2012B01D90020704721B903682F
:1026C000D86800F0030070470368186900F0030041
:1026D000704790F82030013BDBB2012B05D9436AEB
:1026E00043F4802343620120704702685369194311
:1026F00051610020704770477047704770477047BE
:1027000070477047704770477047704770472DE9B2
:10271000F84F054603685C69D3F804809F68D3F8D6
:102720000CB0D3F810A0D3F8189014F001063BD0E9
:1027300017F0010616D001229A6017F0020F08D197
:1027400017F0040F0CD117F0080606D04FF480568E
:1027500008E0FFF7D0FF002604E0FFF7CFFF01E01D
:102760004FF4006617F4807F0DD02B684FF4807211
:102770009A6017F4007F40F0868017F4806F00F0B5
:10278000868046F4005617F4803F0DD02B684FF436
:1027900080329A6017F4003F40F0838017F4802F56
:1027A00000F0838046F4004614F0080F07D01BF0B9
:1027B000100F04D046F400762B681022DA6014F073
:1027C000040F02D01BF0080F79D114F0020F04D0CF
:1027D0002B68DB6813F0030F78D114F0400F07D09B
:1027E0001AF0100F04D046F480662B6810221A618C
:1027F00014F0200F02D01AF0080F6BD114F0100F54
:1028000004D02B681B6913F0030F6AD114F4003F46
:1028100002D018F0100F68D114F4803F02D018F0E5
:10282000080F69D114F4004F7AD018F0040F74D057
:1028300014F4807F04D019F0010F01D046F0010696
:1028400014F4007F04D019F0020F01D046F0020604
:1028500014F4806F04D019F0040F01D046F0040680
:1028600014F4006F59D019F0700956D0B9F1400F27
:1028700065D058D8B9F1200F5ED0B9F1300F42D1F0
:1028800046F0200644E02846FFF736FF7BE717F4C2
:10289000006F02D046F4804675E72846FFF72FFF09
:1028A00071E72846FFF729FF7EE717F4002F02D0D3
:1028B00046F4803678E72846FFF722FF74E72B6856
:1028C0000822DA602846FFF71CFF7EE72846FFF75C
:1028D0000FFB82E72B6808221A612846FFF713FFD7
:1028E0008CE72846FFF70EFF90E72B6810225A600E
:1028F0002846FFF709FF8FE72B6808225A60284611
:10290000FFF703FF8EE7B9F1100F01D146F008067B
:102910002A68936923F0700393612B6804225A603C
:102920009EB9BDE8F88FB9F1500F0BD0B9F1600F27
:10293000EED146F48076EBE746F01006E8E746F085
:102940004006E5E746F08006E2E76B6A1E436E62EA
:102950002846FFF7DBFEE4E7002800F0E08170B5D1
:1029600082B00446036813F0010F3BD09F4B9B6875
:1029700003F00C03042B2CD09C4B9B6803F00C033E
:10298000082B21D06368B3F5803F4FD0B3F5A02F5B
:1029900052D0964B1A6822F480321A601A6822F4D8
:1029A00080221A606368002B50D000F077FC054647
:1029B0008E4B1B6813F4003F14D100F06FFC401BDA
:1029C0006428F5D90320B1E1884B5B6813F4800FCC
:1029D000D8D0864B1B6813F4003F03D06368002BEC
:1029E00000F09F81236813F0020F54D07F4B9B6847
:1029F00013F00C0F3ED07D4B9B6803F00C03082BAB
:102A000033D0E368002B68D0794B01221A6000F0C4
:102A100045FC0546754B1B6813F0020F54D100F0BE
:102A20003DFC401B0228F5D903207FE16F4A136863
:102A300043F480331360B5E76C4B1A6842F480228C
:102A40001A601A6842F480321A60ABE700F026FC84
:102A50000546664B1B6813F4003FC3D000F01EFC14
:102A6000401B6428F5D9032060E1604B5B6813F4D8
:102A7000800FC6D15D4B1B6813F0020F03D0E368D3
:102A8000012B40F05081594A136823F0F803216963
:102A900043EAC1031360236813F0080F42D063694F
:102AA0006BB3534B0122C3F8802E00F0F7FB0546B1
:102AB0004E4B5B6F13F0020F34D100F0EFFB401B65
:102AC0000228F5D9032031E1484A136823F0F803BE
:102AD000216943EAC1031360DDE7454B00221A6018
:102AE00000F0DCFB0546414B1B6813F0020FD2D00F
:102AF00000F0D4FB401B0228F5D9032016E13C4B23
:102B00000022C3F8802E00F0C9FB0546374B5B6FEF
:102B100013F0020F06D000F0C1FB401B0228F5D9CC
:102B2000032003E1236813F0040F77D02F4B1B6CB5
:102B300013F0805F33D1002301932C4B1A6C42F0C9
:102B400080521A641B6C03F080530193019B012592
:102B5000284B1B6813F4807F23D0A368012B34D04B
:102B6000052B38D0214B1A6F22F001021A671A6F19
:102B700022F004021A67A368002B3DD000F08EFB00
:102B800006461A4B1B6F13F0020F46D100F086FB6E
:102B9000801B41F288339842F3D90320C6E0002518
:102BA000D6E7144A136843F48073136000F076FB91
:102BB0000646104B1B6813F4807FCED100F06EFBED
:102BC000801B0228F5D90320B0E0084A136F43F0B8
:102BD00001031367CFE7054B1A6F42F004021A672F
:102BE0001A6F42F001021A67C5E700BF00380240C1
:102BF000000047420070004000F050FB0646524B78
:102C00001B6F13F0020F08D000F048FB801B41F24D
:102C100088339842F3D9032088E0EDB9A369002BEB
:102C200000F08380484A926802F00C02082A51D0D2
:102C3000022B17D0454B00221A6600F02FFB0446EA
:102C4000414B1B6813F0007F42D000F027FB001BB4
:102C50000228F5D9032069E03B4A136C23F0805326
:102C60001364DBE7394B00221A6600F017FB0546B8
:102C7000354B1B6813F0007F06D000F00FFB401BA4
:102C80000228F5D9032051E0E369226A1343626AFE
:102C900043EA8213A26A5208013A43EA0243E26A13
:102CA00043EA0263284A5360284B01221A6600F067
:102CB000F5FA0446244B1B6813F0007F06D100F0A0
:102CC000EDFA001B0228F5D903202FE000202DE0AB
:102CD00000202BE0012B2BD01B4B5B6803F4800101
:102CE000E269914226D103F03F02216A8A4223D150
:102CF000616A47F6C0721A40B2EB811F1ED103F41D
:102D00004031A26A5208013AB1EB024F18D103F0E8
:102D10007063E26AB3EB026F14D1002006E0012079
:102D20007047012002E0012000E0002002B070BDE9
:102D30000120FBE70120F9E70120F7E70120F5E793
:102D40000120F3E70120F1E700380240000047428C
:102D500008B5254B9B6803F00C03042B3FD0082BD0
:102D60003FD1214B5A6802F03F025B6813F4800F99
:102D700012D01D4B5968C1F388111C480023A1FBD8
:102D80000001FEF747FD184B5B68C3F301430133B5
:102D90005B00B0FBF3F025E0134B5968C1F3881CCE
:102DA0004FEA4C11B1EB0C006EEB0E0E4FEA8E1396
:102DB00043EA90638101091A63EB0E03DB0043EAE7
:102DC0005173C90011EB0C0C43F10003990200236D
:102DD0004FEA8C2041EA9C51FEF71CFDD3E70348E3
:102DE00000E0034808BD00BF00380240002D31015B
:102DF0000024F400002800F09B8070B50D460446C6
:102E00004F4B1B6803F007038B4208D2CBB24C4AEE
:102E10001370136803F007038B4240F08B80236824
:102E200013F0020F17D013F0040F04D0454A936833
:102E300043F4E0539360236813F0080F04D0414A31
:102E4000936843F4604393603E4A936823F0F00331
:102E5000A1680B439360236813F0010F32D06368BD
:102E6000012B21D09A1E012A25D9364A126812F068
:102E7000020F61D033498A6822F0030213438B604A
:102E800000F00CFA06462F4B9B6803F00C036268B7
:102E9000B3EB820F16D000F001FA801B41F28833A9
:102EA0009842F0D9032042E0264A126812F4003F0B
:102EB000E0D101203BE0234A126812F0007FD9D113
:102EC000012034E01E4B1B6803F00703AB4207D917
:102ED000EAB21B4B1A701B6803F00703AB422DD1FB
:102EE000236813F0040F06D0164A936823F4E053C6
:102EF000E1680B439360236813F0080F07D0114A71
:102F0000936823F46043216943EAC1039360FFF7A8
:102F10001FFF0C4B9B68C3F303130B4AD35CD840D1
:102F20000A4B18600A4B186800F0C8F9002070BD01
:102F3000012070470120FAE70120F8E70120F6E7B9
:102F4000003C0240003802402859000810000020D0
:102F50000C000020014B1868704700BF10000020D3
:102F600008B5FFF7F7FF044B9B68C3F34233034AEE
:102F7000D35CD84008BD00BF003802403859000873
:102F80000F2303600B4B9A6802F0030242609A68B9
:102F900002F0F00282609A6802F4E052C2609B681C
:102FA000DB0803F4E0530361034B1B6803F00703E2
:102FB0000B60704700380240003C024000230F2B9A
:102FC00000F2E48070B582B060E085685E000324A2
:102FD000B44025EA0405CC68B4402C4384604568BD
:102FE00025EA02054C68C4F300129A402A43426065
:102FF0005AE0DC08083450F8246003F0070295001A
:103000000F22AA4026EA020E0A69AA4042EA0E02EC
:1030100040F824205CE0072200E0002202FA0EF2D1
:103020002A4302345A4D45F824205A4A94686FEADC
:103030000C0224EA0C054E6816F4801F01D04CEAFD
:103040000405544CA560E46802EA04054E6816F4D1
:10305000001F01D04CEA04054E4CE560646802EAAA
:1030600004054E6816F4003F01D04CEA0405494CB3
:103070006560246822404D6815F4803F01D04CEA19
:103080000402444C226001330F2B7DD801229A4068
:103090000C6804EA020C32EA0404F4D14C6804F02F
:1030A0000304013C012C90D94A6802F00302032A70
:1030B00009D0C4685D000322AA4024EA02048A6899
:1030C000AA402243C2604A6802F00302022A90D05A
:1030D00004684FEA430E032202FA0EF224EA0204C5
:1030E0004A6802F0030202FA0EF2224302604A68C2
:1030F00012F4403FC7D000220192274A546C44F496
:1031000080445464526C02F480420192019A9C08FB
:10311000A51C1F4A52F8255003F003024FEA820E05
:103120000F2202FA0EF225EA02051C4A90423FF4F1
:1031300074AF02F5806290421AD002F5806290422C
:1031400018D002F58062904216D002F5806290425B
:1031500014D002F58062904212D002F58062904253
:1031600010D002F5806290423FF455AF082255E737
:10317000012253E7022251E703224FE704224DE7E1
:1031800005224BE7062249E702B070BD704700BF39
:1031900000380140003C014000380240000002407D
:1031A000074AD36823F4E0631B041B0C000200F4FD
:1031B000E060034343F0BF6343F40033D3607047E0
:1031C00000ED00E000B5194BDB68C3F30223C3F147
:1031D000070CBCF1040F28BF4FF0040C03F1040EE0
:1031E000BEF1060F18D9033B4FF0FF3E0EFA0CFC60
:1031F00021EA0C0199400EFA03F322EA0303194372
:1032000000280BDB0901C9B200F1604000F5614004
:1032100080F800135DF804FB0023E5E700F00F00E1
:103220000901C9B2024B1954F4E700BF00ED00E0F8
:1032300014ED00E0002807DB00F01F024009012325
:103240009340024A42F82030704700BF00E100E09E
:1032500008B50B4B1A6842F400721A601A6842F4FF
:1032600080621A601A6842F480721A600320FFF7C5
:1032700097FF0F2000F022F8FEF736FF002008BD70
:10328000003C0240034A1168034B1B780B44136057
:10329000704700BF6802002008000020014B18683A
:1032A000704700BF68020020034AD2F8883043F418
:1032B0007003C2F88830704700ED00E030B589B087
:1032C0000546002401941E4B5A6C42F400325A64A5
:1032D0005B6C03F400330193019B02A903A8FFF781
:1032E0004FFEFFF73DFE43001648A0FB03239B0C57
:1032F000013B1548154A026040F2E732C260436064
:1033000004618460846100F087F9044610B12046AE
:1033100009B030BD0C4800F01FF804460028F6D173
:103320001920FFF787FF0F2D01D90124EFE70022B5
:1033300029461920FFF746FF054B1D60E7E700BF50
:103340000038024083DE1B436C0200200044014031
:103350000C0000207047000090F83D30DBB2012BDC
:1033600037D1022380F83D300268D36843F001036F
:10337000D3600368194A934220D0B3F1804F1DD027
:10338000A2F57C42934219D002F58062934215D097
:1033900002F58062934211D002F5784293420DD03B
:1033A00002F57052934209D0A2F59432934205D0AF
:1033B0001A6842F001021A60002070479A6802F011
:1033C0000702062A07D01A6842F001021A6000209C
:1033D0007047012070470020704700BF0000014087
:1033E000704770477047704770B504460368DE68E1
:1033F0001D6915F0020F10D016F0020F0DD06FF0FE
:1034000002021A610123037703689B6913F0030F1B
:103410005ED0FFF7E6FF0023237715F0040F12D0EC
:1034200016F0040F0FD023686FF004021A61022314
:10343000237723689B6913F4407F4FD02046FFF722
:10344000D0FF0023237715F0080F12D016F0080FD5
:103450000FD023686FF008021A61042323772368D2
:10346000DB6913F0030F40D02046FFF7BAFF0023BB
:10347000237715F0100F12D016F0100F0FD023681D
:103480006FF010021A61082323772368DB6913F4B5
:10349000407F31D02046FFF7A4FF0023237715F0AB
:1034A000010F02D016F0010F2DD115F0800F02D0C0
:1034B00016F0800F2FD115F0400F02D016F0400FFC
:1034C00031D115F0200F02D016F0200F33D170BD8E
:1034D000FFF786FF2046FFF785FF9CE72046FFF7B2
:1034E0007FFF2046FFF77EFFABE72046FFF778FF20
:1034F0002046FFF777FFBAE72046FFF771FF204627
:10350000FFF770FFC9E723686FF001021A612046D8
:10351000FEF736FDC9E723686FF080021A61204686
:1035200000F0A7F8C7E723686FF040021A61204651
:10353000FFF759FFC5E723686FF020021A612046A4
:1035400000F096F8C3E700000368324A904212D0B8
:10355000B0F1804F0FD0A2F57C4290420BD002F523
:103560008062904207D002F58062904203D002F55B
:103570007842904203D123F070034A681343254AEE
:1035800090422AD0B0F1804F27D0A2F57C429042E1
:1035900023D002F5806290421FD002F580629042F3
:1035A0001BD002F57842904217D002F5705290423B
:1035B00013D002F5806290420FD002F580629042F3
:1035C0000BD0A2F59832904207D002F5806290426B
:1035D00003D002F58062904203D123F44073CA689D
:1035E000134323F080034A6913438A68C2620A685E
:1035F0008262084A904203D002F58062904201D173
:103600000A690263026842F0040202600122426118
:10361000036070470000014040B310B5044690F8C5
:103620003D30F3B1022384F83D30214651F8040BBC
:10363000FFF78AFF012384F8463084F83E3084F88F
:103640003F3084F8403084F8413084F8423084F8C8
:10365000433084F8443084F8453084F83D3000200D
:1036600010BD80F83C30FFF775FEDBE701207047A6
:103670007047704700F1080343604FF0FF328260EB
:10368000C360036100230360704700230361704738
:1036900043684B609A688A6051609960086103686A
:1036A00001330360704730B40D68B5F1FF3F11D0AE
:1036B00000F108031C465B681A68AA42FAD96368DD
:1036C0004B6099608C60616008610368013303603E
:1036D00030BC70470469F2E70369416882688A6018
:1036E000416851605A68824206D0002202611A681D
:1036F000013A1A601868704782685A60F5E710B599
:10370000044601F0B7FCA26BE36B9A4204D000249C
:1037100001F0D2FC204610BD0124F9E710B50446A3
:1037200001F0A8FCA36B23B9012401F0C5FC2046DD
:1037300010BD0024F9E770B504461546866B026C8F
:103740005AB903681BB100200136A66370BD8068BA
:1037500000F0D4FF0023A360F6E76DB94068FCF7E2
:103760007FFD226C636813446360A268934219D39F
:10377000236863602846E7E7C068FCF771FD226CA8
:103780005142E3689B1AE3602268934202D2A36825
:103790000B44E360022D01D00020D5E726B1013EA5
:1037A0000020D1E72846CFE70020CDE70346026C92
:1037B0006AB110B50846D9681144D9609C68A14225
:1037C00001D31968D960D968FCF74AFD10BD70476C
:1037D00038B5054601F04EFC95F8454064B201E06D
:1037E000013C64B2002C0ADD6B6A43B105F1240090
:1037F00000F0DAFE0028F3D000F06AFFF0E7FF23C4
:1038000085F8453001F058FC01F034FC95F844404F
:1038100064B201E0013C64B2002C0ADD2B6943B1C3
:1038200005F1100000F0C0FE0028F3D000F050FFBA
:10383000F0E7FF2385F8443001F03EFC38BD38B591
:10384000E0B10D46044601F015FC2368E26B216CE3
:1038500001FB0230A0600020A0636360013A02FB1C
:103860000133E360FF2384F8443084F84530FDB928
:10387000236963B901F020FC012038BD4FF05003EB
:1038800083F31188BFF36F8FBFF34F8FFEE704F10F
:10389000100000F089FE0028ECD04FF0E0234FF03C
:1038A0008052C3F8042DBFF34F8FBFF36F8FE1E752
:1038B00004F11000FFF7DEFE04F12400FFF7DAFE4A
:1038C000D8E738B51D46049C0B4649B92460E0632F
:1038D000236401212046FFF7B2FF84F84C5038BD25
:1038E0002260F4E740B94FF0500383F31188BFF32F
:1038F0006F8FBFF34F8FFEE710B584B01C46844630
:1039000053B192B189B94FF0500383F31188BFF3DB
:103910006F8FBFF34F8FFEE74FF0500383F3118893
:10392000BFF36F8FBFF34F8FFEE76AB1502303934E
:10393000039B502B13D04FF0500383F31188BFF338
:103940006F8FBFF34F8FFEE70029EFD04FF050038A
:1039500083F31188BFF36F8FBFF34F8FFEE7039B95
:10396000012384F8463000949DF818306046FFF734
:10397000A8FF204604B010BDF0B585B0019288B113
:103980000F461D460446B1B1022D20D1E36B012B39
:103990001DD04FF0500383F31188BFF36F8FBFF337
:1039A0004F8FFEE74FF0500383F31188BFF36F8F03
:1039B000BFF34F8FFEE7036C002BE5D04FF05003B1
:1039C00083F31188BFF36F8FBFF34F8FFEE700F0D3
:1039D00085FE064658B9019B002B48D04FF0500396
:1039E00083F31188BFF36F8FBFF34F8FFEE700267D
:1039F0003DE02A4639462046FFF79DFE636A7BB9C3
:103A000048B14FF0E0234FF08052C3F8042DBFF3CC
:103A10004F8FBFF36F8F01F04FFB012005B0F0BD5A
:103A200004F1240000F0C0FD0028F4D04FF0E023A2
:103A30004FF08052C3F8042DBFF34F8FBFF36F8F49
:103A4000E9E701F039FB0020E8E702A800F0F2FD09
:103A5000012619E0002384F8443021E0002384F893
:103A6000453023E02046FFF7B3FE00F07DFC01F077
:103A700001FBA26BE36B9A42BBD3022DB9D0019B31
:103A8000002BDED0002EE0D001F016FB00F0D2FBC0
:103A900001F0F0FA94F8442052B2B2F1FF3FD9D0CD
:103AA00094F8452052B2B2F1FF3FD7D001F004FBA9
:103AB00001A902A800F0CAFDD8B92046FFF71FFEF1
:103AC0000028CFD0019904F1100000F039FD204604
:103AD000FFF77EFE00F048FC0028C8D14FF0E0233D
:103AE0004FF08052C3F8042DBFF34F8FBFF36F8F99
:103AF000BDE72046FFF76CFE00F036FC00208DE7A6
:103B00002DE9F84390B10F4616461C460546B1B163
:103B1000022C20D1EB6B012B1DD04FF0500383F30F
:103B20001188BFF36F8FBFF34F8FFEE74FF0500345
:103B300083F31188BFF36F8FBFF34F8FFEE7036CE2
:103B4000002BE5D04FF0500383F31188BFF36F8F44
:103B5000BFF34F8FFEE701F0B3FBEFF311894FF096
:103B6000500383F31188BFF36F8FBFF34F8FAA6B9E
:103B7000EB6B9A4206D3022C04D0002089F3118803
:103B8000BDE8F88395F845804FFA88F8AB6B22467C
:103B900039462846FFF7CFFDB8F1FF3F06D008F1C0
:103BA00001035BB285F845300120E7E76B6A0BB98A
:103BB0000120E3E705F1240000F0F6FC18B126B17E
:103BC00001203060DAE70120D8E70120D6E7F0B520
:103BD00085B0019290B10F460446C1B100F07EFD60
:103BE000064600BB019B002B5ED04FF0500383F3D1
:103BF0001188BFF36F8FBFF34F8FFEE74FF0500375
:103C000083F31188BFF36F8FBFF34F8FFEE7036C11
:103C1000002BE3D04FF0500383F31188BFF36F8F75
:103C2000BFF34F8FFEE700263EE039462046FFF700
:103C3000BDFD013DA563236923B901F03DFA0120D3
:103C400005B0F0BD04F1100000F0AEFC0028F4D087
:103C50004FF0E0234FF08052C3F8042DBFF34F8F95
:103C6000BFF36F8FE9E701F027FA0020E8E702A829
:103C700000F0E0FC012621E0002384F8443029E034
:103C8000002384F845302BE02046FFF7A1FD00F02B
:103C90006BFB09E02046FFF79BFD00F065FB20462B
:103CA000FFF73CFD00283FD101F0E4F9A56B002DA2
:103CB000BBD1019B002BD6D0002ED8D001F0FCF94F
:103CC00000F0B8FA01F0D6F994F844305BB2B3F1E1
:103CD000FF3FD1D094F845305BB2B3F1FF3FCFD076
:103CE00001F0EAF901A902A800F0B0FC0028D1D146
:103CF0002046FFF713FD0028C6D0019904F12400E7
:103D000000F01EFC2046FFF763FD00F02DFB0028AD
:103D1000CAD14FF0E0234FF08052C3F8042DBFF317
:103D20004F8FBFF36F8FBFE7002089E70023072B7A
:103D30000CD8074A52F833200AB10133F7E7044A96
:103D400042F8331002EBC30358607047704700BF5E
:103D5000B402002070B504460D46164601F08AF9FB
:103D600094F844305BB2B3F1FF3F0DD094F8453086
:103D70005BB2B3F1FF3F0BD001F09EF9A36B5BB1D7
:103D80002046FFF725FD70BD002384F84430EDE7A1
:103D9000002384F84530EFE73246294604F1240039
:103DA00000F0E6FBECE70000084B1B681B6823B93A
:103DB000074B4FF0FF321A607047044B1B68DB68FB
:103DC000DB685A68024B1A60704700BFF802002097
:103DD000A00700202DE9F04780460D46174699467A
:103DE000089EDDF824A00A9C9200A521206BFCF718
:103DF000D1FA236B07F18042013A03EB820727F0E7
:103E00000707B5B34FF0000CBCF10F0F0BD815F836
:103E10000C2004EB0C0383F8342015F80C3013B19C
:103E20000CF1010CF0E7002384F84330372E00D961
:103E30003726E662E66400252565201DFFF725FC90
:103E400004F11800FFF721FC2461C6F13806A661D1
:103E50006462656584F858504A464146384601F028
:103E6000DBF82060BAF1000F01D0CAF80040BDE8CD
:103E7000F087002384F83430D8E7000038B50024F8
:103E800007E004EB840293000E481844FFF7F2FBAE
:103E90000134372CF5D90C4D2846FFF7EBFB0B4CC2
:103EA0002046FFF7E7FB0A48FFF7E4FB0948FFF766
:103EB000E1FB0948FFF7DEFB084B1D60084B1C6067
:103EC00038BD00BF000300207407002088070020D1
:103ED000AC070020D8070020C4070020F80200200B
:103EE000FC02002010B5044601F0C4F8224A136811
:103EF00001331360214B1B685BB1214B1B686BB90D
:103F00001E4B1B68DA6AE36A9A4207D81B4B1C6097
:103F100004E01A4B1C601368012B29D0194A13685E
:103F2000013313606364E06A174B1B68984201D940
:103F3000154B186000EB8000211D144B03EB800033
:103F4000FFF7A6FB01F0B8F80D4B1B687BB10B4BDC
:103F50001B68DA6AE36A9A4209D24FF0E0234FF015
:103F60008052C3F8042DBFF34F8FBFF36F8F10BD86
:103F7000FFF784FFD2E700BF60070020F4020020B3
:103F8000C00700206C0700207007002000030020FD
:103F900010B5044690F8593063B1012B11D0022BB3
:103FA0000ED04FF0500383F31188BFF36F8FBFF330
:103FB0004F8FFEE7006B00F0B3FF204600F0B0FF2C
:103FC00010BD00F0ADFFFBE70F4B1B68D3B110B580
:103FD00001F050F80D4BDB68DC68201DFFF77CFB1F
:103FE0000B4A1368013B1360074A1368013B1360D7
:103FF00001F062F82046FFF7CBFF034B1B68002B54
:10400000E6D110BD704700BF64070020D80700202C
:104010006007002008B5FFF7D7FF074B1B68012B8F
:10402000F9D94FF0E0234FF08052C3F8042DBFF3CD
:104030004F8FBFF36F8FEEE70003002070B504468B
:104040000D46174B1E68174B18680430FFF744FBEA
:10405000B4F1FF3F0DD03444124B1B685C60A642A4
:1040600010D9114B18680F4B19680431FFF71BFB6F
:1040700070BD002DEFD00B4B196804310B48FFF7D2
:1040800007FBF5E70A4B1868064B19680431FFF780
:104090000AFB084B1B68A342EAD9064B1C60E7E702
:1040A000EC070020F4020020FC020020C4070020DE
:1040B000F8020020A007002030B587B00B9C7CB12F
:1040C0000C9DB5B15C250495049D5C2D1AD04FF074
:1040D000500383F31188BFF36F8FBFF34F8FFEE759
:1040E0004FF0500383F31188BFF36F8FBFF34F8FEF
:1040F000FEE74FF0500383F31188BFF36F8FBFF3D8
:104100004F8FFEE7049D0C9D2C63022485F85940D7
:1041100000240394029505AC01940A9C0094FFF7D7
:1041200059FE0C98FFF7DEFE059807B030BD2DE96B
:10413000F04385B00746884614461E46900000F0BE
:1041400071FE00B381465C2000F06CFE0546B0B104
:10415000C0F83090E5B1002385F8593003930295FB
:104160000D9B01930C9B00933346224641463846F3
:10417000FFF730FE2846FFF7B5FE012005E0484670
:1041800000F0CEFEE6E74FF0FF3005B0BDE8F0836B
:104190004FF0FF30F9E7000010B588B00024059417
:1041A000069407AA06A905A800F0C0FD059B029386
:1041B000069B019300942346079A18491848FFF775
:1041C0007BFF184B186040B100F04CFB012806D073
:1041D000B0F1FF3F18D008B010BD0020F6E74FF057
:1041E000500383F31188BFF36F8FBFF34F8F0E4BD4
:1041F0004FF0FF321A600D4B01221A600C4B002267
:104200001A6000F0D1FFE6E74FF0500383F3118806
:10421000BFF36F8FBFF34F8FFEE700BF4059000819
:10422000154000089C070020A0070020C0070020C0
:10423000EC070020024A136801331360704700BF87
:1042400068070020014B1868704700BFEC0700208A
:10425000F8B53A4B1B68002B69D1394B1D68013505
:104260001D60C5B9374B1B681B6843B14FF0500345
:1042700083F31188BFF36F8FBFF34F8FFEE7314A8F
:104280001168314B186810601960304A13680133A7
:104290001360FFF789FD2E4B1B68AB423DD9002709
:1042A0002C4B1B68DB6A03EB83039A002A4B9B5859
:1042B000012B00D90127294B1B68002B3CD001277B
:1042C0003AE001271F4B1B681B6843B31D4B1B685B
:1042D000DB68DC6863689D4226D3261D3046FFF705
:1042E000FBF9A36A1BB104F11800FFF7F5F9E36AC3
:1042F0001B4A1268934201D9194A136003EB8303E6
:104300009A00314614481044FFF7C2F9E26A114B93
:104310001B68DB6A9A42D4D2D4E70027D2E70C4B61
:104320004FF0FF321A60BBE7094A1360B8E70D4A45
:1043300013680133136000273846F8BD6807002072
:10434000EC070020F8020020FC020020A407002057
:10435000A0070020F402002000030020F007002046
:1043600070070020A807002038B5354B1B6843B9FB
:104370004FF0500383F31188BFF36F8FBFF34F8F5C
:10438000FEE700F077FE2E4B1A68013A1A601B68B0
:10439000002B4FD12B4B1B680BB900244BE00024A2
:1043A000294B1B681BB3284BDB68DC6804F1180041
:1043B000FFF792F9251D2846FFF78EF9E06A234B97
:1043C0001B68984201D9214B186000EB80002946F8
:1043D0001F4B03EB8000FFF75BF9E26A1D4B1B6884
:1043E000DB6A9A42DCD31C4B01221A60D8E70CB17D
:1043F000FFF7DAFC194B1C6884B9174B1C68D4B161
:104400004FF0E0234FF08052C3F8042DBFF34F8FDD
:10441000BFF36F8F01240EE0013C07D0FFF718FFB8
:104420000028F9D00C4B01221A60F5E70B4B002253
:104430001A60E2E7002400F03FFE204638BD00BFCE
:104440006807002060070020AC07002070070020EC
:1044500000030020F4020020F0070020A80700203D
:1044600010B5A8B10446104B1B6843B14FF0500380
:1044700083F31188BFF36F8FBFF34F8FFEE7FFF712
:10448000D9FE00212046FFF7D9FDFFF76DFF48B99F
:104490004FF0E0234FF08052C3F8042DBFF34F8F4D
:1044A000BFF36F8F10BD00BF680700201F4B1B6854
:1044B0001BB11F4B01221A6070471D4B00221A606E
:1044C0001C4B1B6803EB83018A001B498A585AB9AD
:1044D0000BB1013BF6E74FF0500383F31188BFF3B4
:1044E0006F8FBFF34F8FFEE703EB830082000A4418
:1044F00050684068506003EB830C4FEA8C0208322E
:10450000114488420BD003EB830291000A4A0A440B
:104510005268D168094A1160064A136070474068C2
:1045200062469100044A0A445060ECE768070020A4
:10453000F00700207007002000030020F402002094
:1045400058B110B50C46094A11681831FFF7ABF89D
:1045500001212046FFF772FD10BD4FF0500383F399
:104560001188BFF36F8FBFF34F8FFEE7F402002077
:1045700038B570B10D4614460A4A11681831FFF774
:1045800087F80CB14FF0FF3521462846FFF756FD5E
:1045900038BD4FF0500383F31188BFF36F8FBFF323
:1045A0004F8FFEE7F402002038B5C368DC6824B3FF
:1045B00004F118052846FFF78FF8184B1B682BBB32
:1045C000251D2846FFF788F8E06A154B1B689842BE
:1045D00001D9134B186000EB80002946114B03EB07
:1045E0008000FFF755F8E26A0F4B1B68DB6A9A42BE
:1045F00011D901200D4B186038BD4FF0500383F3E3
:104600001188BFF36F8FBFF34F8FFEE7294608482D
:10461000FFF73EF8E7E70020EEE700BF680700205D
:104620007007002000030020F4020020F0070020A3
:10463000AC070020034B1B680360034B1B684360FF
:10464000704700BFA4070020EC070020F8B5C8B1F0
:104650000C460546F9B100F00DFD1B4B19686B685F
:10466000C81A2268B2F1FF3F26D0184E36682F686C
:10467000B74201D08B4224D9824215D8002323604F
:1046800001241AE04FF0500383F31188BFF36F8FBA
:10469000BFF34F8FFEE74FF0500383F31188BFF352
:1046A0006F8FBFF34F8FFEE75B1A134423602846DA
:1046B000FFF7C0FF002400E0002400F0FDFC2046CE
:1046C000F8BD0124F9E700BFEC070020A407002093
:1046D000014B01221A607047F0070020054B1B6850
:1046E00033B1054B1B680BB10020704702207047A7
:1046F00001207047C00700206807002000283BD039
:1047000038B504461E4B1B68834208D04FF0500357
:1047100083F31188BFF36F8FBFF34F8FFEE7036DF5
:1047200043B94FF0500383F31188BFF36F8FBFF38A
:104730004F8FFEE7013B0365C16AC26C91421DD0F9
:104740000BB1002038BD051D2846FEF7C5FFE06C03
:10475000E062C0F13803A3610A4B1B68984201D99B
:10476000084B186000EB80002946074B03EB8000E4
:10477000FEF78EFF0120E5E7002070470020E1E70B
:10478000F40200207007002000030020064B1A6886
:1047900013682BB90123036023B9D36818687047E5
:1047A0000023F8E700207047F407002008B54160B7
:1047B000006191420CD8D21A83699A4201D3012038
:1047C00008BD011D094B1868FEF76DFF0020F7E7D3
:1047D0009A4201D2994206D2011D054B1868FEF794
:1047E00062FF0020ECE70120EAE700BFF8070020A5
:1047F000F407002030B583B000F03CFC114B1B687F
:104800001BB100F059FC03B030BD0F4D2846FEF738
:1048100031FF0E4C2046FEF72DFF0D4B1D600D4B5A
:104820001C60002300930C4B0C4A10210A20FFF758
:1048300059F8044B18600028E3D00949FFF776FACD
:10484000DFE700BF180900209C080020B008002006
:10485000F4070020F8070020C8080020FC0700200B
:104860004859000810B588B0FFF7C4FF124B1B6809
:10487000CBB100240594069407AA06A905A800F068
:1048800061FA059B0293069B019302230093234642
:10489000079A0A490A48FFF70FFC0A4B186010B143
:1048A000012008B010BD4FF0500383F31188BFF30F
:1048B0006F8FBFF34F8FFEE7180900205059000893
:1048C000C94B00081C090020B8B19C460346184893
:1048D000006858B300B585B0009101920293052994
:1048E0001CDCFFF7FBFE022810D000231A466946A5
:1048F0000F480068FFF740F815E04FF0500383F3CE
:104900001188BFF36F8FBFF34F8FFEE70023069A26
:10491000694607480068FFF72FF804E00023624665
:104920006946FFF7EDF805B05DF804FB002070471D
:104930001809002070B582B01B4B1B681A6862B35F
:10494000DB681E68DC68251D2846FEF7C5FE236A65
:104950002046984794F8283013F0040FECD0A36950
:1049600033449E4207D26360246129460E4B186887
:10497000FEF799FEE0E7002100910B463246204603
:10498000FFF7A2FF0028D7D14FF0500383F311881F
:10499000BFF36F8FBFF34F8FFEE7044A10680249E1
:1049A0000860136002B070BDF4070020F807002013
:1049B00038B50546FFF746FC0446074B1B688342A3
:1049C00005D800232B60044B1C60204638BDFFF740
:1049D000B1FF01232B60F6E7C408002070B582B058
:1049E00006460D4617490968C968CC68201DFEF7C0
:1049F00073FE94F828C01CF0040F08D12CF0010CB1
:104A000084F828C0236A2046984702B070BDA16987
:104A100033462A4631442046FFF7C8FE0028F1D02D
:104A2000002100910B4632462046FFF74DFF00283B
:104A3000E8D14FF0500383F31188BFF36F8FBFF3BA
:104A40004F8FFEE7F407002070B582B006460C4693
:104A5000FFF7F0FB01A8FFF7ABFF019B33BB054657
:104A60000CB9B04219D224B1124A12681268DAB9EC
:104A700001242246711B104B1868FFF76BF9FFF7F2
:104A800073FCA8B94FF0E0234FF08052C3F8042D17
:104A9000BFF34F8FBFF36F8F0AE0FFF765FC294626
:104AA0003046FFF79BFF03E01C46E2E7FFF75CFCA4
:104AB00002B070BDF80700201809002010B588B0BA
:104AC00002E0049B002B0FDA002204A93D4B18687A
:104AD000FFF77DF8002873D0049B002BF1DA0799CB
:104AE0000698059B9847ECE7069C636913B1201D67
:104AF000FEF7F2FD03A8FFF75BFF049B092BE3D849
:104B0000DFE803F00505053037500505303794F828
:104B1000283043F0010384F82830059BA169024640
:104B200019442046FFF742FE0028CDD0236A2046D4
:104B3000984794F8283013F0040FC5D0A2690021DB
:104B400000910B46059802442046FFF7BDFE002861
:104B5000BAD14FF0500383F31188BFF36F8FBFF3C7
:104B60004F8FFEE794F8283023F0010384F82830B3
:104B7000AAE794F8283043F0010384F82830059917
:104B8000A16131B10346024601442046FFF70EFE03
:104B90009AE74FF0500383F31188BFF36F8FBFF391
:104BA0004F8FFEE794F8283013F0020F04D023F063
:104BB000010384F8283087E7204600F0B1F983E745
:104BC00008B010BD1809002000B583B001A8FFF798
:104BD000DDFD0199FFF738FFFFF770FFF6E708B535
:104BE0004FF0E0231B69FFF779FD012800D108BDD4
:104BF00000F0B0FAFBE70000EFF305832BB9064B9A
:104C0000186828B901221A6070476FF005007047D4
:104C10004FF0FF30704700BF7C0B0020EFF305839F
:104C200073B90A4B1B68012B0DD110B50024084B3A
:104C3000DC77064B02221A60FFF7AEFA204610BD61
:104C40006FF0050070474FF0FF3070477C0B00207D
:104C500000ED00E0F0B587B000240594EFF3058483
:104C600074BB68B322B31568936903B918235C1E3B
:104C7000372C49D8546814F0010F47D156696EB1EA
:104C80004FEA960C94682CB1D7685B2F02D917694C
:104C900007B1C6B92CB14FF0FF340EE04FF0800CD5
:104CA000F0E7D4688CB9146994B14FF0FF3404E094
:104CB0001546002418234FF0800C012C0AD0ACB10B
:104CC000059807B0F0BD0124F7E74FF0FF34F4E793
:104CD0000024F2E7146992680292019400930B4653
:104CE00062462946FFF7E8F90590E9E705AA01922F
:104CF00000930B461FFA8CF22946FFF718FA012899
:104D0000DED000230593DBE70020DAE70020D8E7B8
:104D100008B5EFF3058333B908B9002008BDFFF7E4
:104D20009FFB0020FAE76FF00500F7E7034B0360F5
:104D3000034B0B6080231360704700BF200B0020E3
:104D400020090020034B0360034B0B604FF480737A
:104D500013607047800F0020800B0020124A12F071
:104D6000070F1ED0D11D21F00701C1F57053134468
:104D70000A460E480260002141601344083B23F0BC
:104D800007030B48036059601960991A516013605A
:104D9000084B1960084B1960084B4FF000421A602D
:104DA00070474FF47053E4E7E00F0020F44B00200D
:104DB000DC0F0020E84B0020E44B0020E04B0020FB
:104DC000164B1A461B688342FBD3516802EB010C59
:104DD000844509D0416800EB010C634509D00360AC
:104DE000904219D0106070474068014451601046ED
:104DF000F0E710B40A4C2468A3420BD05B68194456
:104E0000416013681B680360904200D010605DF839
:104E1000044B70470460F7E7704700BFF44B002075
:104E2000DC0F002070B50546FFF704FA364B1B680F
:104E3000A3B1364B1B681D424ED135B1083515F074
:104E4000070F02D025F007050835002D46D0304B5E
:104E50001B68AB4251D32F4A146804E0FFF77EFF72
:104E6000E7E722461C466368AB4202D22368002B68
:104E7000F7D1254B1B68A34241D01668083623683A
:104E8000136063685B1B102B10D9601910F0070FBB
:104E900008D04FF0500383F31188BFF36F8FBFF337
:104EA0004F8FFEE743606560FFF78AFF626818492D
:104EB0000B689B1A0B60184909688B4201D216498E
:104EC0000B60124B1B681343636000232360134A7B
:104ED00013680133136002E0002600E00026FFF7AC
:104EE00043FA16F0070F0CD04FF0500383F31188EC
:104EF000BFF36F8FBFF34F8FFEE70026EFE700266B
:104F0000EDE7304670BD00BFDC0F0020E04B002015
:104F1000E44B0020F44B0020E84B0020EC4B002039
:104F2000002834D038B50446A0F1080550F8043CF8
:104F3000174A1268134208D14FF0500383F31188C7
:104F4000BFF36F8FBFF34F8FFEE750F8081C41B1DE
:104F50004FF0500383F31188BFF36F8FBFF34F8F70
:104F6000FEE723EA020340F8043CFFF763F954F834
:104F7000041C084A13680B4413602846FFF720FFFF
:104F8000054A136801331360FFF7EEF938BD704727
:104F9000E04B0020E44B0020F04B002082B00023C7
:104FA00001930D4B1B68B3F1FF3F08D04FF0500346
:104FB00083F31188BFF36F8FBFF34F8FFEE74FF07E
:104FC000500383F31188BFF36F8FBFF34F8F019BA3
:104FD000002BFCD002B07047140000200848006885
:104FE000006880F308884FF0000080F3148862B6F0
:104FF00061B6BFF34F8FBFF36F8F00DF00BF0000BC
:1050000008ED00E0DFF80C00016841F47001016078
:105010007047000088ED00E04FF0807340F8043CDA
:1050200021F0010140F8081C054B40F80C3C40F809
:10503000202C6FF0020340F8243C4438704700BF36
:105040009D4F00080000000000000000000000006C
:10505000074B19680868B0E8F04F80F30988BFF380
:105060006F8F4FF0000080F311887047AFF300801E
:10507000F40200204FF0500383F31188BFF36F8FC9
:10508000BFF34F8F0B4A136801331360012B00D01D
:1050900070474FF0E023D3F8043D13F0FF0FF7D033
:1050A0004FF0500383F31188BFF36F8FBFF34F8F1F
:1050B000FEE700BF14000020094B1B6843B94FF006
:1050C000500383F31188BFF36F8FBFF34F8FFEE759
:1050D000013B034A13600BB983F31188704700BF8B
:1050E000140000200000000000000000000000008C
:1050F000EFF30980BFF36F8F154B1A681EF0100F86
:1051000008BF20ED108A20E9F04F10602DE909005A
:105110004FF0500080F31188BFF34F8FBFF36F8FB4
:10512000FFF7C4F94FF0000080F3118809BC19683B
:105130000868B0E8F04F1EF0100F08BFB0EC108AFE
:1051400080F30988BFF36F8F704700BFAFF3008013
:10515000F402002008B54FF0500383F31188BFF329
:105160006F8FBFF34F8FFFF773F828B14FF0E02335
:105170004FF08052C3F8042D002383F3118808BD3B
:105180004FF0E022002313619361054B1B68054932
:10519000A1FB03139B09013B536107231361704774
:1051A00010000020D34D62104FF0E023D3F8002D03
:1051B0003D4B9A421CD04FF0E023D3F8002D3B4BDF
:1051C0009A421ED030B583B0394B1A78D2B20192D0
:1051D000FF221A701B78DBB28DF803309DF8033084
:1051E00003F05003334A1370334B07221A601BE05D
:1051F0004FF0500383F31188BFF36F8FBFF34F8FCE
:10520000FEE74FF0500383F31188BFF36F8FBFF3B6
:105210004F8FFEE7284A1368013B13609DF8033067
:105220005B00DBB28DF803309DF8033013F0800F84
:10523000F0D1214B1B68032B08D04FF0500383F3B0
:105240001188BFF36F8FBFF34F8FFEE71B021A4A1F
:10525000136003F4E0631360019BDBB2144A137024
:105260004FF0E024D4F8203D43F47003C4F8203D0F
:10527000D4F8203D43F07043C4F8203DFFF780FF91
:1052800000250E4B1D60FFF7BDFED4F8343F43F000
:105290004043C4F8343FFFF7A1FEFFF707F9FFF7DB
:1052A0007DFE284603B030BD71C20F4170C20F4170
:1052B00000E400E0FC4B0020004C00201400002023
:1052C000EFF305830F2B0FD9114A9B5CDBB2114A18
:1052D00012789A4208D94FF0500383F31188BFF334
:1052E0006F8FBFF34F8FFEE74FF0E023D3F80C3DF5
:1052F00003F4E063084A1268934208D94FF0500360
:1053000083F31188BFF36F8FBFF34F8FFEE77047B2
:10531000F0E300E0FC4B0020004C002008B50F48F3
:105320000F4B036006234360002383604FF08072BD
:10533000C2604FF4403202614FF480124261037642
:10534000012242768376C27603774377FCF7EEFE3E
:1053500000B908BDFCF720FEFBE700BFAC00002051
:105360000068004010B588B00023039304930593B0
:105370000693079302681E4B9A4201D008B010BDF5
:105380000024009403F5E8331A6C42F080621A643A
:105390001A6C02F080620092009A01941A6C42F03A
:1053A00000721A641A6C02F000720192019A02945F
:1053B0001A6B42F002021A631B6B03F002030293A2
:1053C000029B4FF440530393022304930323069359
:1053D0000923079303A90748FDF7F0FD224605219D
:1053E0004020FDF7EFFE4020FDF724FFC6E700BF99
:1053F000006800400004024008B5002343630E2209
:105400008263826443628362C3620363C363012372
:105410000364436400F124010148FCF72DFF08BD3B
:10542000AC000020082383610023036143617047BF
:1054300080ED000AC0ED010A80ED041A0023C3606C
:105440008360704703684B6043688B6083680B60C0
:1054500070470B6803604B6843604B69836070471B
:1054600030B583B005460C4611462046FFF7F1FFE4
:1054700001AB224604F108012846FCF7C7FF08B932
:1054800003B030BD07212846FDF735F8F8E70000E6
:10549000DFF834D0FDF708FF0C480D490D4A002312
:1054A00002E0D458C4500433C4188C42F9D30A4AD9
:1054B0000A4C002301E013600432A242FBD3FAF746
:1054C000ABFEFCF7BFFD704700000220000000208B
:1054D000180000206859000818000020044C002023
:1054E000FEE70000F8B500BFF8BC08BC9E46704758
:0C54F000F8B500BFF8BC08BC9E46704731
:1054FC00000FC93F000F494000CB9640000FC94038
:10550C000053FB4000CB164100ED2F41000F4941E9
:10551C000031624100537B41003A8A4100CB9641F5
:10552C00005CA34100EDAF41007EBC41000FC941BE
:10553C0000A0D5410031E24100C2EE410053FB41D5
:10554C0000F20342003A0A420083104200CB16429A
:10555C0000141D42005C234200A5294200ED2F429D
:10556C0000363642007E3C4200C74242000F4942A0
:10557C00A2000000F9000000830000006E00000093
:10558C004E0000004400000015000000290000003F
:10559C00FC0000002700000057000000D1000000B4
:1055AC00F500000034000000DD000000C000000029
:1055BC00DB00000062000000950000009900000074
:1055CC003C0000004300000090000000410000007F
:1055DC00FE0000005100000063000000AB00000062
:1055EC00DE000000BB000000C500000061000000F0
:1055FC00B7000000240000006E0000003A0000001C
:10560C00420000004D000000D2000000E00000004D
:10561C0006000000490000002E000000EA00000017
:10562C0009000000D1000000920000001C000000E6
:10563C00FE0000001D000000EB0000001C0000003C
:10564C00B100000029000000A70000003E0000008F
:10565C00E80000008200000035000000F5000000AA
:10566C002E000000BB00000044000000840000007D
:10567C00E90000009C000000700000002600000003
:10568C00B40000005F0000007E000000410000003C
:10569C003900000091000000D60000003900000025
:1056AC00830000005300000039000000F4000000EB
:1056BC009C000000840000005F0000008B000000D4
:1056CC00BD000000F9000000280000003B000000B5
:1056DC001F000000F800000097000000FF00000011
:1056EC00DE00000005000000980000000F00000024
:1056FC00EF0000002F000000110000008B000000E4
:10570C005A0000000A0000006D0000001F0000009D
:10571C006D000000360000007E000000CF0000008D
:10572C0027000000CB00000009000000B7000000BB
:10573C004F000000460000003F0000006600000023
:10574C009E0000005F000000EA0000002D00000039
:10575C007500000027000000BA000000C700000020
:10576C00EB000000E5000000F10000007B000000F1
:10577C003D0000000700000039000000F7000000A9
:10578C008A0000005200000092000000EA000000B5
:10579C006B000000FB0000005F000000B100000087
:1057AC001F0000008D0000005D00000008000000DC
:1057BC00560000000300000030000000460000000E
:1057CC00FC0000007B0000006B000000AB00000040
:1057DC00F0000000CF000000BC0000002000000022
:1057EC009A000000F4000000360000001D000000CC
:1057FC00A9000000E300000091000000610000001F
:10580C005E000000E60000001B0000000800000025
:10581C006500000099000000850000005F0000009A
:10582C0014000000A0000000680000004000000010
:10583C008D000000FF000000D80000008000000078
:10584C004D00000073000000270000003100000034
:10585C0006000000060000001500000056000000C5
:10586C00CA00000073000000A8000000C90000007E
:10587C0060000000E20000007B000000C00000009F
:10588C008C0000006B00000004000000070000000A
:10589C00090000000000C93F0000F0390000DA37B1
:1058AC000000A2330000842E0000502B0000C22701
:1058BC000000D0220000C41F0000C61B00004417CB
:1058CC005461736B3100000064656661756C7454CF
:1058DC0061736B00CC580008000000000000000051
:1058EC000000000000000000000400001800000090
:1058FC000000000000000000D45800080000000068
:10590C000000000000000000000000000004000087
:10591C001800000000000000000000000000000063
:10592C000000000001020304060708090000000043
:10593C000102030449444C4500000000546D7251AF
:0C594C0000000000546D722053766300D0
:08595800ECBEFF7F010000001E
:04596000F901000841
:04596400D101000865
:105968000AD7A33B0000803F0100000010000000A0
:085978000024F400AAAAAAAA67
:04000005080054910A
:00000001FF
